{
	"data": {
		"bytecode": {
			"linkReferences": {},
			"object": "608060405234801561000f575f80fd5b50335f806101000a81548173ffffffffffffffffffffffffffffffffffffffff021916908373ffffffffffffffffffffffffffffffffffffffff1602179055506104eb8061005c5f395ff3fe608060405234801561000f575f80fd5b5060043610610034575f3560e01c80638381f58a14610038578063cbf7446b14610056575b5f80fd5b610040610072565b60405161004d91906100ae565b60405180910390f35b610070600480360381019061006b919061015a565b610078565b005b60015481565b826001819055508181600291826100909291906103e8565b50505050565b5f819050919050565b6100a881610096565b82525050565b5f6020820190506100c15f83018461009f565b92915050565b5f80fd5b5f80fd5b6100d881610096565b81146100e2575f80fd5b50565b5f813590506100f3816100cf565b92915050565b5f80fd5b5f80fd5b5f80fd5b5f8083601f84011261011a576101196100f9565b5b8235905067ffffffffffffffff811115610137576101366100fd565b5b60208301915083600182028301111561015357610152610101565b5b9250929050565b5f805f60408486031215610171576101706100c7565b5b5f61017e868287016100e5565b935050602084013567ffffffffffffffff81111561019f5761019e6100cb565b5b6101ab86828701610105565b92509250509250925092565b5f82905092915050565b7f4e487b71000000000000000000000000000000000000000000000000000000005f52604160045260245ffd5b7f4e487b71000000000000000000000000000000000000000000000000000000005f52602260045260245ffd5b5f600282049050600182168061023257607f821691505b602082108103610245576102446101ee565b5b50919050565b5f819050815f5260205f209050919050565b5f6020601f8301049050919050565b5f82821b905092915050565b5f600883026102a77fffffffffffffffffffffffffffffffffffffffffffffffffffffffffffffffff8261026c565b6102b1868361026c565b95508019841693508086168417925050509392505050565b5f819050919050565b5f6102ec6102e76102e284610096565b6102c9565b610096565b9050919050565b5f819050919050565b610305836102d2565b610319610311826102f3565b848454610278565b825550505050565b5f90565b61032d610321565b6103388184846102fc565b505050565b5b8181101561035b576103505f82610325565b60018101905061033e565b5050565b601f8211156103a0576103718161024b565b61037a8461025d565b81016020851015610389578190505b61039d6103958561025d565b83018261033d565b50505b505050565b5f82821c905092915050565b5f6103c05f19846008026103a5565b1980831691505092915050565b5f6103d883836103b1565b9150826002028217905092915050565b6103f283836101b7565b67ffffffffffffffff81111561040b5761040a6101c1565b5b610415825461021b565b61042082828561035f565b5f601f83116001811461044d575f841561043b578287013590505b61044585826103cd565b8655506104ac565b601f19841661045b8661024b565b5f5b828110156104825784890135825560018201915060208501945060208101905061045d565b8683101561049f578489013561049b601f8916826103b1565b8355505b6001600288020188555050505b5050505050505056fea2646970667358221220d23908041578f802c54ff845bbe4fd2d2cbdfc80707af4a3c7ee6ed3cf48e0c764736f6c63430008180033",
			"opcodes": "PUSH1 0x80 PUSH1 0x40 MSTORE CALLVALUE DUP1 ISZERO PUSH2 0xF JUMPI PUSH0 DUP1 REVERT JUMPDEST POP CALLER PUSH0 DUP1 PUSH2 0x100 EXP DUP2 SLOAD DUP2 PUSH20 0xFFFFFFFFFFFFFFFFFFFFFFFFFFFFFFFFFFFFFFFF MUL NOT AND SWAP1 DUP4 PUSH20 0xFFFFFFFFFFFFFFFFFFFFFFFFFFFFFFFFFFFFFFFF AND MUL OR SWAP1 SSTORE POP PUSH2 0x4EB DUP1 PUSH2 0x5C PUSH0 CODECOPY PUSH0 RETURN INVALID PUSH1 0x80 PUSH1 0x40 MSTORE CALLVALUE DUP1 ISZERO PUSH2 0xF JUMPI PUSH0 DUP1 REVERT JUMPDEST POP PUSH1 0x4 CALLDATASIZE LT PUSH2 0x34 JUMPI PUSH0 CALLDATALOAD PUSH1 0xE0 SHR DUP1 PUSH4 0x8381F58A EQ PUSH2 0x38 JUMPI DUP1 PUSH4 0xCBF7446B EQ PUSH2 0x56 JUMPI JUMPDEST PUSH0 DUP1 REVERT JUMPDEST PUSH2 0x40 PUSH2 0x72 JUMP JUMPDEST PUSH1 0x40 MLOAD PUSH2 0x4D SWAP2 SWAP1 PUSH2 0xAE JUMP JUMPDEST PUSH1 0x40 MLOAD DUP1 SWAP2 SUB SWAP1 RETURN JUMPDEST PUSH2 0x70 PUSH1 0x4 DUP1 CALLDATASIZE SUB DUP2 ADD SWAP1 PUSH2 0x6B SWAP2 SWAP1 PUSH2 0x15A JUMP JUMPDEST PUSH2 0x78 JUMP JUMPDEST STOP JUMPDEST PUSH1 0x1 SLOAD DUP2 JUMP JUMPDEST DUP3 PUSH1 0x1 DUP2 SWAP1 SSTORE POP DUP2 DUP2 PUSH1 0x2 SWAP2 DUP3 PUSH2 0x90 SWAP3 SWAP2 SWAP1 PUSH2 0x3E8 JUMP JUMPDEST POP POP POP POP JUMP JUMPDEST PUSH0 DUP2 SWAP1 POP SWAP2 SWAP1 POP JUMP JUMPDEST PUSH2 0xA8 DUP2 PUSH2 0x96 JUMP JUMPDEST DUP3 MSTORE POP POP JUMP JUMPDEST PUSH0 PUSH1 0x20 DUP3 ADD SWAP1 POP PUSH2 0xC1 PUSH0 DUP4 ADD DUP5 PUSH2 0x9F JUMP JUMPDEST SWAP3 SWAP2 POP POP JUMP JUMPDEST PUSH0 DUP1 REVERT JUMPDEST PUSH0 DUP1 REVERT JUMPDEST PUSH2 0xD8 DUP2 PUSH2 0x96 JUMP JUMPDEST DUP2 EQ PUSH2 0xE2 JUMPI PUSH0 DUP1 REVERT JUMPDEST POP JUMP JUMPDEST PUSH0 DUP2 CALLDATALOAD SWAP1 POP PUSH2 0xF3 DUP2 PUSH2 0xCF JUMP JUMPDEST SWAP3 SWAP2 POP POP JUMP JUMPDEST PUSH0 DUP1 REVERT JUMPDEST PUSH0 DUP1 REVERT JUMPDEST PUSH0 DUP1 REVERT JUMPDEST PUSH0 DUP1 DUP4 PUSH1 0x1F DUP5 ADD SLT PUSH2 0x11A JUMPI PUSH2 0x119 PUSH2 0xF9 JUMP JUMPDEST JUMPDEST DUP3 CALLDATALOAD SWAP1 POP PUSH8 0xFFFFFFFFFFFFFFFF DUP2 GT ISZERO PUSH2 0x137 JUMPI PUSH2 0x136 PUSH2 0xFD JUMP JUMPDEST JUMPDEST PUSH1 0x20 DUP4 ADD SWAP2 POP DUP4 PUSH1 0x1 DUP3 MUL DUP4 ADD GT ISZERO PUSH2 0x153 JUMPI PUSH2 0x152 PUSH2 0x101 JUMP JUMPDEST JUMPDEST SWAP3 POP SWAP3 SWAP1 POP JUMP JUMPDEST PUSH0 DUP1 PUSH0 PUSH1 0x40 DUP5 DUP7 SUB SLT ISZERO PUSH2 0x171 JUMPI PUSH2 0x170 PUSH2 0xC7 JUMP JUMPDEST JUMPDEST PUSH0 PUSH2 0x17E DUP7 DUP3 DUP8 ADD PUSH2 0xE5 JUMP JUMPDEST SWAP4 POP POP PUSH1 0x20 DUP5 ADD CALLDATALOAD PUSH8 0xFFFFFFFFFFFFFFFF DUP2 GT ISZERO PUSH2 0x19F JUMPI PUSH2 0x19E PUSH2 0xCB JUMP JUMPDEST JUMPDEST PUSH2 0x1AB DUP7 DUP3 DUP8 ADD PUSH2 0x105 JUMP JUMPDEST SWAP3 POP SWAP3 POP POP SWAP3 POP SWAP3 POP SWAP3 JUMP JUMPDEST PUSH0 DUP3 SWAP1 POP SWAP3 SWAP2 POP POP JUMP JUMPDEST PUSH32 0x4E487B7100000000000000000000000000000000000000000000000000000000 PUSH0 MSTORE PUSH1 0x41 PUSH1 0x4 MSTORE PUSH1 0x24 PUSH0 REVERT JUMPDEST PUSH32 0x4E487B7100000000000000000000000000000000000000000000000000000000 PUSH0 MSTORE PUSH1 0x22 PUSH1 0x4 MSTORE PUSH1 0x24 PUSH0 REVERT JUMPDEST PUSH0 PUSH1 0x2 DUP3 DIV SWAP1 POP PUSH1 0x1 DUP3 AND DUP1 PUSH2 0x232 JUMPI PUSH1 0x7F DUP3 AND SWAP2 POP JUMPDEST PUSH1 0x20 DUP3 LT DUP2 SUB PUSH2 0x245 JUMPI PUSH2 0x244 PUSH2 0x1EE JUMP JUMPDEST JUMPDEST POP SWAP2 SWAP1 POP JUMP JUMPDEST PUSH0 DUP2 SWAP1 POP DUP2 PUSH0 MSTORE PUSH1 0x20 PUSH0 KECCAK256 SWAP1 POP SWAP2 SWAP1 POP JUMP JUMPDEST PUSH0 PUSH1 0x20 PUSH1 0x1F DUP4 ADD DIV SWAP1 POP SWAP2 SWAP1 POP JUMP JUMPDEST PUSH0 DUP3 DUP3 SHL SWAP1 POP SWAP3 SWAP2 POP POP JUMP JUMPDEST PUSH0 PUSH1 0x8 DUP4 MUL PUSH2 0x2A7 PUSH32 0xFFFFFFFFFFFFFFFFFFFFFFFFFFFFFFFFFFFFFFFFFFFFFFFFFFFFFFFFFFFFFFFF DUP3 PUSH2 0x26C JUMP JUMPDEST PUSH2 0x2B1 DUP7 DUP4 PUSH2 0x26C JUMP JUMPDEST SWAP6 POP DUP1 NOT DUP5 AND SWAP4 POP DUP1 DUP7 AND DUP5 OR SWAP3 POP POP POP SWAP4 SWAP3 POP POP POP JUMP JUMPDEST PUSH0 DUP2 SWAP1 POP SWAP2 SWAP1 POP JUMP JUMPDEST PUSH0 PUSH2 0x2EC PUSH2 0x2E7 PUSH2 0x2E2 DUP5 PUSH2 0x96 JUMP JUMPDEST PUSH2 0x2C9 JUMP JUMPDEST PUSH2 0x96 JUMP JUMPDEST SWAP1 POP SWAP2 SWAP1 POP JUMP JUMPDEST PUSH0 DUP2 SWAP1 POP SWAP2 SWAP1 POP JUMP JUMPDEST PUSH2 0x305 DUP4 PUSH2 0x2D2 JUMP JUMPDEST PUSH2 0x319 PUSH2 0x311 DUP3 PUSH2 0x2F3 JUMP JUMPDEST DUP5 DUP5 SLOAD PUSH2 0x278 JUMP JUMPDEST DUP3 SSTORE POP POP POP POP JUMP JUMPDEST PUSH0 SWAP1 JUMP JUMPDEST PUSH2 0x32D PUSH2 0x321 JUMP JUMPDEST PUSH2 0x338 DUP2 DUP5 DUP5 PUSH2 0x2FC JUMP JUMPDEST POP POP POP JUMP JUMPDEST JUMPDEST DUP2 DUP2 LT ISZERO PUSH2 0x35B JUMPI PUSH2 0x350 PUSH0 DUP3 PUSH2 0x325 JUMP JUMPDEST PUSH1 0x1 DUP2 ADD SWAP1 POP PUSH2 0x33E JUMP JUMPDEST POP POP JUMP JUMPDEST PUSH1 0x1F DUP3 GT ISZERO PUSH2 0x3A0 JUMPI PUSH2 0x371 DUP2 PUSH2 0x24B JUMP JUMPDEST PUSH2 0x37A DUP5 PUSH2 0x25D JUMP JUMPDEST DUP2 ADD PUSH1 0x20 DUP6 LT ISZERO PUSH2 0x389 JUMPI DUP2 SWAP1 POP JUMPDEST PUSH2 0x39D PUSH2 0x395 DUP6 PUSH2 0x25D JUMP JUMPDEST DUP4 ADD DUP3 PUSH2 0x33D JUMP JUMPDEST POP POP JUMPDEST POP POP POP JUMP JUMPDEST PUSH0 DUP3 DUP3 SHR SWAP1 POP SWAP3 SWAP2 POP POP JUMP JUMPDEST PUSH0 PUSH2 0x3C0 PUSH0 NOT DUP5 PUSH1 0x8 MUL PUSH2 0x3A5 JUMP JUMPDEST NOT DUP1 DUP4 AND SWAP2 POP POP SWAP3 SWAP2 POP POP JUMP JUMPDEST PUSH0 PUSH2 0x3D8 DUP4 DUP4 PUSH2 0x3B1 JUMP JUMPDEST SWAP2 POP DUP3 PUSH1 0x2 MUL DUP3 OR SWAP1 POP SWAP3 SWAP2 POP POP JUMP JUMPDEST PUSH2 0x3F2 DUP4 DUP4 PUSH2 0x1B7 JUMP JUMPDEST PUSH8 0xFFFFFFFFFFFFFFFF DUP2 GT ISZERO PUSH2 0x40B JUMPI PUSH2 0x40A PUSH2 0x1C1 JUMP JUMPDEST JUMPDEST PUSH2 0x415 DUP3 SLOAD PUSH2 0x21B JUMP JUMPDEST PUSH2 0x420 DUP3 DUP3 DUP6 PUSH2 0x35F JUMP JUMPDEST PUSH0 PUSH1 0x1F DUP4 GT PUSH1 0x1 DUP2 EQ PUSH2 0x44D JUMPI PUSH0 DUP5 ISZERO PUSH2 0x43B JUMPI DUP3 DUP8 ADD CALLDATALOAD SWAP1 POP JUMPDEST PUSH2 0x445 DUP6 DUP3 PUSH2 0x3CD JUMP JUMPDEST DUP7 SSTORE POP PUSH2 0x4AC JUMP JUMPDEST PUSH1 0x1F NOT DUP5 AND PUSH2 0x45B DUP7 PUSH2 0x24B JUMP JUMPDEST PUSH0 JUMPDEST DUP3 DUP2 LT ISZERO PUSH2 0x482 JUMPI DUP5 DUP10 ADD CALLDATALOAD DUP3 SSTORE PUSH1 0x1 DUP3 ADD SWAP2 POP PUSH1 0x20 DUP6 ADD SWAP5 POP PUSH1 0x20 DUP2 ADD SWAP1 POP PUSH2 0x45D JUMP JUMPDEST DUP7 DUP4 LT ISZERO PUSH2 0x49F JUMPI DUP5 DUP10 ADD CALLDATALOAD PUSH2 0x49B PUSH1 0x1F DUP10 AND DUP3 PUSH2 0x3B1 JUMP JUMPDEST DUP4 SSTORE POP JUMPDEST PUSH1 0x1 PUSH1 0x2 DUP9 MUL ADD DUP9 SSTORE POP POP POP JUMPDEST POP POP POP POP POP POP POP JUMP INVALID LOG2 PUSH5 0x6970667358 0x22 SLT KECCAK256 0xD2 CODECOPY ADDMOD DIV ISZERO PUSH25 0xF802C54FF845BBE4FD2D2CBDFC80707AF4A3C7EE6ED3CF48E0 0xC7 PUSH5 0x736F6C6343 STOP ADDMOD XOR STOP CALLER "
		},
		"gasEstimates": {
			"creation": {
				"codeDepositCost": "251800",
				"executionCost": "24557",
				"totalCost": "276357"
			},
			"external": {
				"number()": "2403",
				"save(uint256,string)": "infinite"
			}
		},
		"methodIdentifiers": {
			"number()": "8381f58a",
			"save(uint256,string)": "cbf7446b"
		}
	},
	"abi": [
		{
			"inputs": [],
			"stateMutability": "nonpayable",
			"type": "constructor"
		},
		{
			"inputs": [],
			"name": "number",
			"outputs": [
				{
					"internalType": "uint256",
					"name": "",
					"type": "uint256"
				}
			],
			"stateMutability": "view",
			"type": "function"
		},
		{
			"inputs": [
				{
					"internalType": "uint256",
					"name": "_number",
					"type": "uint256"
				},
				{
					"internalType": "string",
					"name": "_name",
					"type": "string"
				}
			],
			"name": "save",
			"outputs": [],
			"stateMutability": "nonpayable",
			"type": "function"
		}
	]
}